{
  "address": "0x790c8d10b1736deB3a7AfC37956a2F0e40f69BF6",
  "abi": [
    {
      "inputs": [],
      "stateMutability": "nonpayable",
      "type": "constructor"
    },
    {
      "inputs": [
        {
          "internalType": "address",
          "name": "owner",
          "type": "address"
        }
      ],
      "name": "OwnableInvalidOwner",
      "type": "error"
    },
    {
      "inputs": [
        {
          "internalType": "address",
          "name": "account",
          "type": "address"
        }
      ],
      "name": "OwnableUnauthorizedAccount",
      "type": "error"
    },
    {
      "anonymous": false,
      "inputs": [
        {
          "indexed": true,
          "internalType": "uint256",
          "name": "positionId",
          "type": "uint256"
        },
        {
          "indexed": false,
          "internalType": "uint256",
          "name": "exitPrice",
          "type": "uint256"
        },
        {
          "indexed": false,
          "internalType": "int256",
          "name": "pnlUSDC",
          "type": "int256"
        },
        {
          "indexed": false,
          "internalType": "enum PositionRegistry.PositionStatus",
          "name": "status",
          "type": "uint8"
        }
      ],
      "name": "DipBuyClosed",
      "type": "event"
    },
    {
      "anonymous": false,
      "inputs": [
        {
          "indexed": true,
          "internalType": "uint256",
          "name": "positionId",
          "type": "uint256"
        },
        {
          "indexed": true,
          "internalType": "address",
          "name": "token",
          "type": "address"
        },
        {
          "indexed": false,
          "internalType": "string",
          "name": "chain",
          "type": "string"
        },
        {
          "indexed": false,
          "internalType": "uint256",
          "name": "sizeUSDC",
          "type": "uint256"
        },
        {
          "indexed": false,
          "internalType": "uint256",
          "name": "takeProfitPrice",
          "type": "uint256"
        },
        {
          "indexed": false,
          "internalType": "uint256",
          "name": "stopLossPrice",
          "type": "uint256"
        }
      ],
      "name": "DipBuyOpened",
      "type": "event"
    },
    {
      "anonymous": false,
      "inputs": [
        {
          "indexed": true,
          "internalType": "address",
          "name": "previousOwner",
          "type": "address"
        },
        {
          "indexed": true,
          "internalType": "address",
          "name": "newOwner",
          "type": "address"
        }
      ],
      "name": "OwnershipTransferred",
      "type": "event"
    },
    {
      "anonymous": false,
      "inputs": [
        {
          "indexed": false,
          "internalType": "uint16",
          "name": "winRate",
          "type": "uint16"
        },
        {
          "indexed": false,
          "internalType": "int256",
          "name": "totalPnL",
          "type": "int256"
        },
        {
          "indexed": false,
          "internalType": "uint256",
          "name": "totalPositions",
          "type": "uint256"
        }
      ],
      "name": "PerformanceUpdated",
      "type": "event"
    },
    {
      "anonymous": false,
      "inputs": [
        {
          "indexed": true,
          "internalType": "uint256",
          "name": "positionId",
          "type": "uint256"
        },
        {
          "indexed": false,
          "internalType": "uint256",
          "name": "exitPrice",
          "type": "uint256"
        },
        {
          "indexed": false,
          "internalType": "int256",
          "name": "pnlUSDC",
          "type": "int256"
        },
        {
          "indexed": false,
          "internalType": "enum PositionRegistry.PositionStatus",
          "name": "status",
          "type": "uint8"
        }
      ],
      "name": "PositionClosed",
      "type": "event"
    },
    {
      "anonymous": false,
      "inputs": [
        {
          "indexed": true,
          "internalType": "uint256",
          "name": "positionId",
          "type": "uint256"
        },
        {
          "indexed": true,
          "internalType": "address",
          "name": "token",
          "type": "address"
        },
        {
          "indexed": false,
          "internalType": "string",
          "name": "chain",
          "type": "string"
        },
        {
          "indexed": false,
          "internalType": "uint256",
          "name": "sizeUSDC",
          "type": "uint256"
        },
        {
          "indexed": false,
          "internalType": "uint16",
          "name": "confidenceScore",
          "type": "uint16"
        }
      ],
      "name": "PositionOpened",
      "type": "event"
    },
    {
      "inputs": [
        {
          "internalType": "string",
          "name": "",
          "type": "string"
        }
      ],
      "name": "chainMetrics",
      "outputs": [
        {
          "internalType": "uint256",
          "name": "totalPositions",
          "type": "uint256"
        },
        {
          "internalType": "uint256",
          "name": "closedPositions",
          "type": "uint256"
        },
        {
          "internalType": "uint256",
          "name": "profitablePositions",
          "type": "uint256"
        },
        {
          "internalType": "int256",
          "name": "totalPnLUSDC",
          "type": "int256"
        },
        {
          "internalType": "uint256",
          "name": "totalVolumeUSDC",
          "type": "uint256"
        },
        {
          "internalType": "uint16",
          "name": "winRatePercent",
          "type": "uint16"
        },
        {
          "internalType": "int256",
          "name": "averagePnL",
          "type": "int256"
        },
        {
          "internalType": "int256",
          "name": "largestWin",
          "type": "int256"
        },
        {
          "internalType": "int256",
          "name": "largestLoss",
          "type": "int256"
        }
      ],
      "stateMutability": "view",
      "type": "function"
    },
    {
      "inputs": [
        {
          "internalType": "uint256",
          "name": "positionId",
          "type": "uint256"
        },
        {
          "internalType": "uint256",
          "name": "exitPrice",
          "type": "uint256"
        },
        {
          "internalType": "enum PositionRegistry.PositionStatus",
          "name": "finalStatus",
          "type": "uint8"
        }
      ],
      "name": "closeDipBuy",
      "outputs": [],
      "stateMutability": "nonpayable",
      "type": "function"
    },
    {
      "inputs": [
        {
          "internalType": "uint256",
          "name": "positionId",
          "type": "uint256"
        },
        {
          "internalType": "uint256",
          "name": "exitPrice",
          "type": "uint256"
        },
        {
          "internalType": "enum PositionRegistry.PositionStatus",
          "name": "finalStatus",
          "type": "uint8"
        }
      ],
      "name": "closePosition",
      "outputs": [],
      "stateMutability": "nonpayable",
      "type": "function"
    },
    {
      "inputs": [],
      "name": "dipBuyIdCounter",
      "outputs": [
        {
          "internalType": "uint256",
          "name": "",
          "type": "uint256"
        }
      ],
      "stateMutability": "view",
      "type": "function"
    },
    {
      "inputs": [],
      "name": "dipBuyMetrics",
      "outputs": [
        {
          "internalType": "uint256",
          "name": "totalPositions",
          "type": "uint256"
        },
        {
          "internalType": "uint256",
          "name": "closedPositions",
          "type": "uint256"
        },
        {
          "internalType": "uint256",
          "name": "profitablePositions",
          "type": "uint256"
        },
        {
          "internalType": "int256",
          "name": "totalPnLUSDC",
          "type": "int256"
        },
        {
          "internalType": "uint256",
          "name": "totalVolumeUSDC",
          "type": "uint256"
        },
        {
          "internalType": "uint16",
          "name": "winRatePercent",
          "type": "uint16"
        },
        {
          "internalType": "int256",
          "name": "averagePnL",
          "type": "int256"
        },
        {
          "internalType": "int256",
          "name": "largestWin",
          "type": "int256"
        },
        {
          "internalType": "int256",
          "name": "largestLoss",
          "type": "int256"
        }
      ],
      "stateMutability": "view",
      "type": "function"
    },
    {
      "inputs": [
        {
          "internalType": "uint256",
          "name": "",
          "type": "uint256"
        }
      ],
      "name": "dipBuyPositions",
      "outputs": [
        {
          "internalType": "uint256",
          "name": "id",
          "type": "uint256"
        },
        {
          "internalType": "address",
          "name": "tokenAddress",
          "type": "address"
        },
        {
          "internalType": "string",
          "name": "chain",
          "type": "string"
        },
        {
          "internalType": "uint256",
          "name": "entryPrice",
          "type": "uint256"
        },
        {
          "internalType": "uint256",
          "name": "entryTimestamp",
          "type": "uint256"
        },
        {
          "internalType": "uint256",
          "name": "sizeTokens",
          "type": "uint256"
        },
        {
          "internalType": "uint256",
          "name": "sizeUSDC",
          "type": "uint256"
        },
        {
          "internalType": "uint256",
          "name": "exitPrice",
          "type": "uint256"
        },
        {
          "internalType": "uint256",
          "name": "exitTimestamp",
          "type": "uint256"
        },
        {
          "internalType": "int256",
          "name": "pnlUSDC",
          "type": "int256"
        },
        {
          "internalType": "uint256",
          "name": "takeProfitPrice",
          "type": "uint256"
        },
        {
          "internalType": "uint256",
          "name": "stopLossPrice",
          "type": "uint256"
        },
        {
          "internalType": "uint16",
          "name": "confidenceScore",
          "type": "uint16"
        },
        {
          "internalType": "enum PositionRegistry.PositionStatus",
          "name": "status",
          "type": "uint8"
        }
      ],
      "stateMutability": "view",
      "type": "function"
    },
    {
      "inputs": [
        {
          "internalType": "string",
          "name": "chain",
          "type": "string"
        }
      ],
      "name": "getChainPerformance",
      "outputs": [
        {
          "components": [
            {
              "internalType": "uint256",
              "name": "totalPositions",
              "type": "uint256"
            },
            {
              "internalType": "uint256",
              "name": "closedPositions",
              "type": "uint256"
            },
            {
              "internalType": "uint256",
              "name": "profitablePositions",
              "type": "uint256"
            },
            {
              "internalType": "int256",
              "name": "totalPnLUSDC",
              "type": "int256"
            },
            {
              "internalType": "uint256",
              "name": "totalVolumeUSDC",
              "type": "uint256"
            },
            {
              "internalType": "uint16",
              "name": "winRatePercent",
              "type": "uint16"
            },
            {
              "internalType": "int256",
              "name": "averagePnL",
              "type": "int256"
            },
            {
              "internalType": "int256",
              "name": "largestWin",
              "type": "int256"
            },
            {
              "internalType": "int256",
              "name": "largestLoss",
              "type": "int256"
            }
          ],
          "internalType": "struct PositionRegistry.PerformanceMetrics",
          "name": "",
          "type": "tuple"
        }
      ],
      "stateMutability": "view",
      "type": "function"
    },
    {
      "inputs": [],
      "name": "getDipBuyMetrics",
      "outputs": [
        {
          "components": [
            {
              "internalType": "uint256",
              "name": "totalPositions",
              "type": "uint256"
            },
            {
              "internalType": "uint256",
              "name": "closedPositions",
              "type": "uint256"
            },
            {
              "internalType": "uint256",
              "name": "profitablePositions",
              "type": "uint256"
            },
            {
              "internalType": "int256",
              "name": "totalPnLUSDC",
              "type": "int256"
            },
            {
              "internalType": "uint256",
              "name": "totalVolumeUSDC",
              "type": "uint256"
            },
            {
              "internalType": "uint16",
              "name": "winRatePercent",
              "type": "uint16"
            },
            {
              "internalType": "int256",
              "name": "averagePnL",
              "type": "int256"
            },
            {
              "internalType": "int256",
              "name": "largestWin",
              "type": "int256"
            },
            {
              "internalType": "int256",
              "name": "largestLoss",
              "type": "int256"
            }
          ],
          "internalType": "struct PositionRegistry.PerformanceMetrics",
          "name": "",
          "type": "tuple"
        }
      ],
      "stateMutability": "view",
      "type": "function"
    },
    {
      "inputs": [
        {
          "internalType": "uint256",
          "name": "positionId",
          "type": "uint256"
        }
      ],
      "name": "getDipBuyPosition",
      "outputs": [
        {
          "components": [
            {
              "internalType": "uint256",
              "name": "id",
              "type": "uint256"
            },
            {
              "internalType": "address",
              "name": "tokenAddress",
              "type": "address"
            },
            {
              "internalType": "string",
              "name": "chain",
              "type": "string"
            },
            {
              "internalType": "uint256",
              "name": "entryPrice",
              "type": "uint256"
            },
            {
              "internalType": "uint256",
              "name": "entryTimestamp",
              "type": "uint256"
            },
            {
              "internalType": "uint256",
              "name": "sizeTokens",
              "type": "uint256"
            },
            {
              "internalType": "uint256",
              "name": "sizeUSDC",
              "type": "uint256"
            },
            {
              "internalType": "uint256",
              "name": "exitPrice",
              "type": "uint256"
            },
            {
              "internalType": "uint256",
              "name": "exitTimestamp",
              "type": "uint256"
            },
            {
              "internalType": "int256",
              "name": "pnlUSDC",
              "type": "int256"
            },
            {
              "internalType": "uint256",
              "name": "takeProfitPrice",
              "type": "uint256"
            },
            {
              "internalType": "uint256",
              "name": "stopLossPrice",
              "type": "uint256"
            },
            {
              "internalType": "uint16",
              "name": "confidenceScore",
              "type": "uint16"
            },
            {
              "internalType": "enum PositionRegistry.PositionStatus",
              "name": "status",
              "type": "uint8"
            }
          ],
          "internalType": "struct PositionRegistry.DipBuyPosition",
          "name": "",
          "type": "tuple"
        }
      ],
      "stateMutability": "view",
      "type": "function"
    },
    {
      "inputs": [],
      "name": "getOpenDipBuys",
      "outputs": [
        {
          "components": [
            {
              "internalType": "uint256",
              "name": "id",
              "type": "uint256"
            },
            {
              "internalType": "address",
              "name": "tokenAddress",
              "type": "address"
            },
            {
              "internalType": "string",
              "name": "chain",
              "type": "string"
            },
            {
              "internalType": "uint256",
              "name": "entryPrice",
              "type": "uint256"
            },
            {
              "internalType": "uint256",
              "name": "entryTimestamp",
              "type": "uint256"
            },
            {
              "internalType": "uint256",
              "name": "sizeTokens",
              "type": "uint256"
            },
            {
              "internalType": "uint256",
              "name": "sizeUSDC",
              "type": "uint256"
            },
            {
              "internalType": "uint256",
              "name": "exitPrice",
              "type": "uint256"
            },
            {
              "internalType": "uint256",
              "name": "exitTimestamp",
              "type": "uint256"
            },
            {
              "internalType": "int256",
              "name": "pnlUSDC",
              "type": "int256"
            },
            {
              "internalType": "uint256",
              "name": "takeProfitPrice",
              "type": "uint256"
            },
            {
              "internalType": "uint256",
              "name": "stopLossPrice",
              "type": "uint256"
            },
            {
              "internalType": "uint16",
              "name": "confidenceScore",
              "type": "uint16"
            },
            {
              "internalType": "enum PositionRegistry.PositionStatus",
              "name": "status",
              "type": "uint8"
            }
          ],
          "internalType": "struct PositionRegistry.DipBuyPosition[]",
          "name": "",
          "type": "tuple[]"
        }
      ],
      "stateMutability": "view",
      "type": "function"
    },
    {
      "inputs": [],
      "name": "getOpenPositions",
      "outputs": [
        {
          "components": [
            {
              "internalType": "uint256",
              "name": "id",
              "type": "uint256"
            },
            {
              "internalType": "address",
              "name": "tokenAddress",
              "type": "address"
            },
            {
              "internalType": "string",
              "name": "chain",
              "type": "string"
            },
            {
              "internalType": "uint256",
              "name": "entryPrice",
              "type": "uint256"
            },
            {
              "internalType": "uint256",
              "name": "entryTimestamp",
              "type": "uint256"
            },
            {
              "internalType": "uint256",
              "name": "sizeTokens",
              "type": "uint256"
            },
            {
              "internalType": "uint256",
              "name": "sizeUSDC",
              "type": "uint256"
            },
            {
              "internalType": "uint256",
              "name": "exitPrice",
              "type": "uint256"
            },
            {
              "internalType": "uint256",
              "name": "exitTimestamp",
              "type": "uint256"
            },
            {
              "internalType": "int256",
              "name": "pnlUSDC",
              "type": "int256"
            },
            {
              "internalType": "uint16",
              "name": "confidenceScore",
              "type": "uint16"
            },
            {
              "internalType": "bytes32[]",
              "name": "triggeringSignals",
              "type": "bytes32[]"
            },
            {
              "internalType": "enum PositionRegistry.PositionStatus",
              "name": "status",
              "type": "uint8"
            }
          ],
          "internalType": "struct PositionRegistry.Position[]",
          "name": "",
          "type": "tuple[]"
        }
      ],
      "stateMutability": "view",
      "type": "function"
    },
    {
      "inputs": [],
      "name": "getPerformanceMetrics",
      "outputs": [
        {
          "components": [
            {
              "internalType": "uint256",
              "name": "totalPositions",
              "type": "uint256"
            },
            {
              "internalType": "uint256",
              "name": "closedPositions",
              "type": "uint256"
            },
            {
              "internalType": "uint256",
              "name": "profitablePositions",
              "type": "uint256"
            },
            {
              "internalType": "int256",
              "name": "totalPnLUSDC",
              "type": "int256"
            },
            {
              "internalType": "uint256",
              "name": "totalVolumeUSDC",
              "type": "uint256"
            },
            {
              "internalType": "uint16",
              "name": "winRatePercent",
              "type": "uint16"
            },
            {
              "internalType": "int256",
              "name": "averagePnL",
              "type": "int256"
            },
            {
              "internalType": "int256",
              "name": "largestWin",
              "type": "int256"
            },
            {
              "internalType": "int256",
              "name": "largestLoss",
              "type": "int256"
            }
          ],
          "internalType": "struct PositionRegistry.PerformanceMetrics",
          "name": "",
          "type": "tuple"
        }
      ],
      "stateMutability": "view",
      "type": "function"
    },
    {
      "inputs": [
        {
          "internalType": "uint256",
          "name": "positionId",
          "type": "uint256"
        }
      ],
      "name": "getPosition",
      "outputs": [
        {
          "components": [
            {
              "internalType": "uint256",
              "name": "id",
              "type": "uint256"
            },
            {
              "internalType": "address",
              "name": "tokenAddress",
              "type": "address"
            },
            {
              "internalType": "string",
              "name": "chain",
              "type": "string"
            },
            {
              "internalType": "uint256",
              "name": "entryPrice",
              "type": "uint256"
            },
            {
              "internalType": "uint256",
              "name": "entryTimestamp",
              "type": "uint256"
            },
            {
              "internalType": "uint256",
              "name": "sizeTokens",
              "type": "uint256"
            },
            {
              "internalType": "uint256",
              "name": "sizeUSDC",
              "type": "uint256"
            },
            {
              "internalType": "uint256",
              "name": "exitPrice",
              "type": "uint256"
            },
            {
              "internalType": "uint256",
              "name": "exitTimestamp",
              "type": "uint256"
            },
            {
              "internalType": "int256",
              "name": "pnlUSDC",
              "type": "int256"
            },
            {
              "internalType": "uint16",
              "name": "confidenceScore",
              "type": "uint16"
            },
            {
              "internalType": "bytes32[]",
              "name": "triggeringSignals",
              "type": "bytes32[]"
            },
            {
              "internalType": "enum PositionRegistry.PositionStatus",
              "name": "status",
              "type": "uint8"
            }
          ],
          "internalType": "struct PositionRegistry.Position",
          "name": "",
          "type": "tuple"
        }
      ],
      "stateMutability": "view",
      "type": "function"
    },
    {
      "inputs": [
        {
          "internalType": "string",
          "name": "chain",
          "type": "string"
        }
      ],
      "name": "getPositionsByChain",
      "outputs": [
        {
          "components": [
            {
              "internalType": "uint256",
              "name": "id",
              "type": "uint256"
            },
            {
              "internalType": "address",
              "name": "tokenAddress",
              "type": "address"
            },
            {
              "internalType": "string",
              "name": "chain",
              "type": "string"
            },
            {
              "internalType": "uint256",
              "name": "entryPrice",
              "type": "uint256"
            },
            {
              "internalType": "uint256",
              "name": "entryTimestamp",
              "type": "uint256"
            },
            {
              "internalType": "uint256",
              "name": "sizeTokens",
              "type": "uint256"
            },
            {
              "internalType": "uint256",
              "name": "sizeUSDC",
              "type": "uint256"
            },
            {
              "internalType": "uint256",
              "name": "exitPrice",
              "type": "uint256"
            },
            {
              "internalType": "uint256",
              "name": "exitTimestamp",
              "type": "uint256"
            },
            {
              "internalType": "int256",
              "name": "pnlUSDC",
              "type": "int256"
            },
            {
              "internalType": "uint16",
              "name": "confidenceScore",
              "type": "uint16"
            },
            {
              "internalType": "bytes32[]",
              "name": "triggeringSignals",
              "type": "bytes32[]"
            },
            {
              "internalType": "enum PositionRegistry.PositionStatus",
              "name": "status",
              "type": "uint8"
            }
          ],
          "internalType": "struct PositionRegistry.Position[]",
          "name": "",
          "type": "tuple[]"
        }
      ],
      "stateMutability": "view",
      "type": "function"
    },
    {
      "inputs": [
        {
          "internalType": "uint256",
          "name": "limit",
          "type": "uint256"
        }
      ],
      "name": "getTopPerformers",
      "outputs": [
        {
          "components": [
            {
              "internalType": "uint256",
              "name": "id",
              "type": "uint256"
            },
            {
              "internalType": "address",
              "name": "tokenAddress",
              "type": "address"
            },
            {
              "internalType": "string",
              "name": "chain",
              "type": "string"
            },
            {
              "internalType": "uint256",
              "name": "entryPrice",
              "type": "uint256"
            },
            {
              "internalType": "uint256",
              "name": "entryTimestamp",
              "type": "uint256"
            },
            {
              "internalType": "uint256",
              "name": "sizeTokens",
              "type": "uint256"
            },
            {
              "internalType": "uint256",
              "name": "sizeUSDC",
              "type": "uint256"
            },
            {
              "internalType": "uint256",
              "name": "exitPrice",
              "type": "uint256"
            },
            {
              "internalType": "uint256",
              "name": "exitTimestamp",
              "type": "uint256"
            },
            {
              "internalType": "int256",
              "name": "pnlUSDC",
              "type": "int256"
            },
            {
              "internalType": "uint16",
              "name": "confidenceScore",
              "type": "uint16"
            },
            {
              "internalType": "bytes32[]",
              "name": "triggeringSignals",
              "type": "bytes32[]"
            },
            {
              "internalType": "enum PositionRegistry.PositionStatus",
              "name": "status",
              "type": "uint8"
            }
          ],
          "internalType": "struct PositionRegistry.Position[]",
          "name": "",
          "type": "tuple[]"
        }
      ],
      "stateMutability": "view",
      "type": "function"
    },
    {
      "inputs": [],
      "name": "metrics",
      "outputs": [
        {
          "internalType": "uint256",
          "name": "totalPositions",
          "type": "uint256"
        },
        {
          "internalType": "uint256",
          "name": "closedPositions",
          "type": "uint256"
        },
        {
          "internalType": "uint256",
          "name": "profitablePositions",
          "type": "uint256"
        },
        {
          "internalType": "int256",
          "name": "totalPnLUSDC",
          "type": "int256"
        },
        {
          "internalType": "uint256",
          "name": "totalVolumeUSDC",
          "type": "uint256"
        },
        {
          "internalType": "uint16",
          "name": "winRatePercent",
          "type": "uint16"
        },
        {
          "internalType": "int256",
          "name": "averagePnL",
          "type": "int256"
        },
        {
          "internalType": "int256",
          "name": "largestWin",
          "type": "int256"
        },
        {
          "internalType": "int256",
          "name": "largestLoss",
          "type": "int256"
        }
      ],
      "stateMutability": "view",
      "type": "function"
    },
    {
      "inputs": [],
      "name": "nexusVault",
      "outputs": [
        {
          "internalType": "address",
          "name": "",
          "type": "address"
        }
      ],
      "stateMutability": "view",
      "type": "function"
    },
    {
      "inputs": [],
      "name": "owner",
      "outputs": [
        {
          "internalType": "address",
          "name": "",
          "type": "address"
        }
      ],
      "stateMutability": "view",
      "type": "function"
    },
    {
      "inputs": [],
      "name": "positionIdCounter",
      "outputs": [
        {
          "internalType": "uint256",
          "name": "",
          "type": "uint256"
        }
      ],
      "stateMutability": "view",
      "type": "function"
    },
    {
      "inputs": [
        {
          "internalType": "uint256",
          "name": "",
          "type": "uint256"
        }
      ],
      "name": "positions",
      "outputs": [
        {
          "internalType": "uint256",
          "name": "id",
          "type": "uint256"
        },
        {
          "internalType": "address",
          "name": "tokenAddress",
          "type": "address"
        },
        {
          "internalType": "string",
          "name": "chain",
          "type": "string"
        },
        {
          "internalType": "uint256",
          "name": "entryPrice",
          "type": "uint256"
        },
        {
          "internalType": "uint256",
          "name": "entryTimestamp",
          "type": "uint256"
        },
        {
          "internalType": "uint256",
          "name": "sizeTokens",
          "type": "uint256"
        },
        {
          "internalType": "uint256",
          "name": "sizeUSDC",
          "type": "uint256"
        },
        {
          "internalType": "uint256",
          "name": "exitPrice",
          "type": "uint256"
        },
        {
          "internalType": "uint256",
          "name": "exitTimestamp",
          "type": "uint256"
        },
        {
          "internalType": "int256",
          "name": "pnlUSDC",
          "type": "int256"
        },
        {
          "internalType": "uint16",
          "name": "confidenceScore",
          "type": "uint16"
        },
        {
          "internalType": "enum PositionRegistry.PositionStatus",
          "name": "status",
          "type": "uint8"
        }
      ],
      "stateMutability": "view",
      "type": "function"
    },
    {
      "inputs": [
        {
          "internalType": "address",
          "name": "tokenAddress",
          "type": "address"
        },
        {
          "internalType": "string",
          "name": "chain",
          "type": "string"
        },
        {
          "internalType": "uint256",
          "name": "entryPrice",
          "type": "uint256"
        },
        {
          "internalType": "uint256",
          "name": "sizeTokens",
          "type": "uint256"
        },
        {
          "internalType": "uint256",
          "name": "sizeUSDC",
          "type": "uint256"
        },
        {
          "internalType": "uint256",
          "name": "takeProfitPrice",
          "type": "uint256"
        },
        {
          "internalType": "uint256",
          "name": "stopLossPrice",
          "type": "uint256"
        },
        {
          "internalType": "uint16",
          "name": "confidenceScore",
          "type": "uint16"
        }
      ],
      "name": "recordDipBuy",
      "outputs": [
        {
          "internalType": "uint256",
          "name": "positionId",
          "type": "uint256"
        }
      ],
      "stateMutability": "nonpayable",
      "type": "function"
    },
    {
      "inputs": [
        {
          "internalType": "address",
          "name": "tokenAddress",
          "type": "address"
        },
        {
          "internalType": "string",
          "name": "chain",
          "type": "string"
        },
        {
          "internalType": "uint256",
          "name": "entryPrice",
          "type": "uint256"
        },
        {
          "internalType": "uint256",
          "name": "sizeTokens",
          "type": "uint256"
        },
        {
          "internalType": "uint256",
          "name": "sizeUSDC",
          "type": "uint256"
        },
        {
          "internalType": "uint16",
          "name": "confidenceScore",
          "type": "uint16"
        },
        {
          "internalType": "bytes32[]",
          "name": "triggeringSignals",
          "type": "bytes32[]"
        }
      ],
      "name": "recordPosition",
      "outputs": [
        {
          "internalType": "uint256",
          "name": "positionId",
          "type": "uint256"
        }
      ],
      "stateMutability": "nonpayable",
      "type": "function"
    },
    {
      "inputs": [],
      "name": "renounceOwnership",
      "outputs": [],
      "stateMutability": "nonpayable",
      "type": "function"
    },
    {
      "inputs": [
        {
          "internalType": "address",
          "name": "_nexusVault",
          "type": "address"
        }
      ],
      "name": "setNexusVault",
      "outputs": [],
      "stateMutability": "nonpayable",
      "type": "function"
    },
    {
      "inputs": [
        {
          "internalType": "uint8",
          "name": "",
          "type": "uint8"
        }
      ],
      "name": "signalTypeMetrics",
      "outputs": [
        {
          "internalType": "uint256",
          "name": "totalPositions",
          "type": "uint256"
        },
        {
          "internalType": "uint256",
          "name": "closedPositions",
          "type": "uint256"
        },
        {
          "internalType": "uint256",
          "name": "profitablePositions",
          "type": "uint256"
        },
        {
          "internalType": "int256",
          "name": "totalPnLUSDC",
          "type": "int256"
        },
        {
          "internalType": "uint256",
          "name": "totalVolumeUSDC",
          "type": "uint256"
        },
        {
          "internalType": "uint16",
          "name": "winRatePercent",
          "type": "uint16"
        },
        {
          "internalType": "int256",
          "name": "averagePnL",
          "type": "int256"
        },
        {
          "internalType": "int256",
          "name": "largestWin",
          "type": "int256"
        },
        {
          "internalType": "int256",
          "name": "largestLoss",
          "type": "int256"
        }
      ],
      "stateMutability": "view",
      "type": "function"
    },
    {
      "inputs": [
        {
          "internalType": "address",
          "name": "newOwner",
          "type": "address"
        }
      ],
      "name": "transferOwnership",
      "outputs": [],
      "stateMutability": "nonpayable",
      "type": "function"
    }
  ],
  "transactionHash": "0x57b6841639dbf7c4a7392115f0001ee292aeb1d37453cae6d62f94ed1c2afb1d",
  "args": [],
  "numDeployments": 1,
  "solcInputHash": "e050e418d48dc49b5b010671f0c5bdab",
  "bytecode": "0x60806040523480156200001157600080fd5b5033806200003957604051631e4fbdf760e01b81526000600482015260240160405180910390fd5b62000044816200004b565b506200009b565b600080546001600160a01b038381166001600160a01b0319831681178455604051919092169283917f8be0079c531659141344cd1fd0a4f28419497f9722a3daafe3b4186f6b6457e09190a35050565b6132da80620000ab6000396000f3fe608060405234801561001057600080fd5b506004361061018e5760003560e01c80637d2f1c47116100de578063db0d0ee711610097578063f2fde38b11610071578063f2fde38b14610516578063f8aee21614610529578063feb490201461053c578063ff083a971461054f57600080fd5b8063db0d0ee7146104ce578063eb02c301146104e3578063f2405f571461050357600080fd5b80637d2f1c47146103c55780638b88f08c146103d85780638da5cb5b1461045157806399fbab8814610462578063a04748f61461048d578063cba63d69146104bb57600080fd5b80634bfe0f761161014b5780636c786a7e116101255780636c786a7e1461035d57806370d20dd114610370578063715018a6146103905780637c6f360c1461039857600080fd5b80634bfe0f761461030a5780635616be401461033557806363cd895c1461034a57600080fd5b80630b22c672146101935780630fbac333146101af57806312a2fa76146101c45780631e87a1f8146101cd5780632160eedf1461027e5780632266f7a2146102dc575b600080fd5b61019c60055481565b6040519081526020015b60405180910390f35b6101b7610557565b6040516101a69190612834565b61019c60035481565b6102366101db3660046128ac565b80516020818301810180516018825292820191909301209152805460018201546002830154600384015460048501546005860154600687015460078801546008909801549697959694959394929361ffff9092169290919089565b60408051998a5260208a0198909852968801959095526060870193909352608086019190915261ffff1660a085015260c084015260e0830152610100820152610120016101a6565b61023661028c36600461295d565b6019602052600090815260409020805460018201546002830154600384015460048501546005860154600687015460078801546008909801549697959694959394929361ffff9092169290919089565b600f5460105460115460125460135460145460155460165460175461023698979695949361ffff1692919089565b60015461031d906001600160a01b031681565b6040516001600160a01b0390911681526020016101a6565b610348610343366004612987565b610844565b005b61019c610358366004612a3b565b610ae1565b61019c61036b366004612b1b565b610df5565b61038361037e366004612baf565b611055565b6040516101a69190612c93565b6103486111d0565b6103ab6103a6366004612baf565b6111e4565b6040516101a69e9d9c9b9a99989796959493929190612ca6565b6103486103d3366004612d39565b6112e9565b6103e0611359565b6040516101a69190600061012082019050825182526020830151602083015260408301516040830152606083015160608301526080830151608083015261ffff60a08401511660a083015260c083015160c083015260e083015160e083015261010080840151818401525092915050565b6000546001600160a01b031661031d565b610475610470366004612baf565b6113bc565b6040516101a69c9b9a99989796959493929190612d54565b600654600754600854600954600a54600b54600c54600d54600e5461023698979695949361ffff1692919089565b6103486104c9366004612987565b6114b7565b6104d661166e565b6040516101a69190612dd8565b6104f66104f1366004612baf565b611914565b6040516101a69190612e2d565b6103e0610511366004612e40565b611ac1565b610348610524366004612d39565b611b59565b6101b7610537366004612baf565b611b97565b6101b761054a366004612e40565b611e6e565b6103e0612197565b6060600060015b60035481116105b2576000818152600260205260408120600c015460ff16600481111561058d5761058d61272d565b036105a0578161059c81612e98565b9250505b806105aa81612e98565b91505061055e565b5060008167ffffffffffffffff8111156105ce576105ce612896565b60405190808252806020026020018201604052801561060757816020015b6105f46124e6565b8152602001906001900390816105ec5790505b509050600060015b600354811161083b576000818152600260205260408120600c015460ff16600481111561063e5761063e61272d565b036108295760008181526002602081815260409283902083516101a0810185528154815260018201546001600160a01b0316928101929092529182018054919384019161068a90612eb1565b80601f01602080910402602001604051908101604052809291908181526020018280546106b690612eb1565b80156107035780601f106106d857610100808354040283529160200191610703565b820191906000526020600020905b8154815290600101906020018083116106e657829003601f168201915b5050505050815260200160038201548152602001600482015481526020016005820154815260200160068201548152602001600782015481526020016008820154815260200160098201548152602001600a820160009054906101000a900461ffff1661ffff1661ffff168152602001600b82018054806020026020016040519081016040528092919081815260200182805480156107c157602002820191906000526020600020905b8154815260200190600101908083116107ad575b5050509183525050600c82015460209091019060ff1660048111156107e8576107e861272d565b60048111156107f9576107f961272d565b8152505083838151811061080f5761080f612eeb565b6020026020010181905250818061082590612e98565b9250505b8061083381612e98565b91505061060f565b50909392505050565b6001546001600160a01b031633146108775760405162461bcd60e51b815260040161086e90612f01565b60405180910390fd5b600083815260026020526040812090600c82015460ff16600481111561089f5761089f61272d565b146108e05760405162461bcd60e51b81526020600482015260116024820152702837b9b4ba34b7b7103737ba1037b832b760791b604482015260640161086e565b60008260048111156108f4576108f461272d565b036109385760405162461bcd60e51b8152602060048201526014602482015273496e76616c69642066696e616c2073746174757360601b604482015260640161086e565b60078101839055426008820155600c8101805483919060ff191660018360048111156109665761096661272d565b0217905550600083826003015461097d9190612f2f565b9050670de0b6b3a76400008260050154826109989190612f56565b6109a29190612f9c565b600983018190556109b390846121fa565b610a4e8260020180546109c590612eb1565b80601f01602080910402602001604051908101604052809291908181526020018280546109f190612eb1565b8015610a3e5780601f10610a1357610100808354040283529160200191610a3e565b820191906000526020600020905b815481529060010190602001808311610a2157829003601f168201915b50505050508360090154856122c7565b847fd87d1c9084ab4767da914d01614ba916e860318df25aa652d7df0143028d060985846009015486604051610a8693929190612fca565b60405180910390a2600b546009546006546040805161ffff9094168452602084019290925282820152517facc8f8b0c514e87d8f0c408f3489c1116a9dd0b9799c24017d06565510dbe3eb9181900360600190a15050505050565b6001546000906001600160a01b03163314610b0e5760405162461bcd60e51b815260040161086e90612f01565b60038054906000610b1e83612e98565b91905055506003549050604051806101a001604052808281526020018b6001600160a01b031681526020018a8a8080601f016020809104026020016040519081016040528093929190818152602001838380828437600081840152601f19601f8201169050808301925050505050505081526020018881526020014281526020018781526020018681526020016000815260200160008152602001600081526020018561ffff1681526020018484808060200260200160405190810160405280939291908181526020018383602002808284376000920182905250938552505060209092019150905260008281526002602081815260409283902084518155908401516001820180546001600160a01b0319166001600160a01b039092169190911790559183015190820190610c54908261303c565b50606082015160038201556080820151600482015560a0820151600582015560c0820151600682015560e0820151600782015561010082015160088201556101208201516009820155610140820151600a8201805461ffff191661ffff9092169190911790556101608201518051610cd691600b84019160209091019061256b565b50610180820151600c8201805460ff19166001836004811115610cfb57610cfb61272d565b0217905550506006805491506000610d1283612e98565b91905055508460066004016000828254610d2c91906130fc565b9091555050604051601890610d44908b908b9061310f565b9081526040519081900360200190208054906000610d6183612e98565b91905055508460188a8a604051610d7992919061310f565b90815260200160405180910390206004016000828254610d9991906130fc565b92505081905550896001600160a01b0316817f02847c210f338b3fcf21fcde914f512991716416f403ba179ddb847683ef94968b8b8989604051610de09493929190613148565b60405180910390a39998505050505050505050565b6001546000906001600160a01b03163314610e225760405162461bcd60e51b815260040161086e90612f01565b60058054906000610e3283612e98565b91905055506005549050604051806101c001604052808281526020018b6001600160a01b031681526020018a8a8080601f0160208091040260200160405190810160405280939291908181526020018383808284376000920182905250938552505050602082018a9052426040830152606082018990526080820188905260a0820181905260c0820181905260e082018190526101008201879052610120820186905261ffff85166101408301526101609091015260008281526004602090815260409182902083518155908301516001820180546001600160a01b0319166001600160a01b03909216919091179055908201516002820190610f35908261303c565b5060608201516003820155608082015160048083019190915560a0830151600583015560c0830151600683015560e0830151600783015561010083015160088301556101208301516009830155610140830151600a830155610160830151600b830155610180830151600c8301805461ffff90921661ffff198316811782556101a086015193919262ffffff1916179062010000908490811115610fdb57610fdb61272d565b021790555050600f805491506000610ff283612e98565b919050555084600f600401600082825461100c91906130fc565b92505081905550896001600160a01b0316817f56330229c267a4fa23d00dd0a664e160851822f7e2038563167fb0c4f08ff0138b8b898989604051610de0959493929190613177565b61105d6125b6565b60008281526004602090815260409182902082516101c0810184528154815260018201546001600160a01b03169281019290925260028101805492939192918401916110a890612eb1565b80601f01602080910402602001604051908101604052809291908181526020018280546110d490612eb1565b80156111215780601f106110f657610100808354040283529160200191611121565b820191906000526020600020905b81548152906001019060200180831161110457829003601f168201915b50505091835250506003820154602082015260048083015460408301526005830154606083015260068301546080830152600783015460a0830152600883015460c0830152600983015460e0830152600a830154610100830152600b830154610120830152600c83015461ffff81166101408401526101609092019162010000900460ff16908111156111b6576111b661272d565b60048111156111c7576111c761272d565b90525092915050565b6111d861239d565b6111e260006123ca565b565b60046020526000908152604090208054600182015460028301805492936001600160a01b039092169261121690612eb1565b80601f016020809104026020016040519081016040528092919081815260200182805461124290612eb1565b801561128f5780601f106112645761010080835404028352916020019161128f565b820191906000526020600020905b81548152906001019060200180831161127257829003601f168201915b505050506003830154600484015460058501546006860154600787015460088801546009890154600a8a0154600b8b0154600c909b0154999a97999698509496939592949193909261ffff81169062010000900460ff168e565b6112f161239d565b6001600160a01b0381166113375760405162461bcd60e51b815260206004820152600d60248201526c125b9d985b1a59081d985d5b1d609a1b604482015260640161086e565b600180546001600160a01b0319166001600160a01b0392909216919091179055565b61136161263d565b506040805161012081018252600f5481526010546020820152601154918101919091526012546060820152601354608082015260145461ffff1660a082015260155460c082015260165460e082015260175461010082015290565b600260208190526000918252604090912080546001820154928201805491936001600160a01b031692916113ef90612eb1565b80601f016020809104026020016040519081016040528092919081815260200182805461141b90612eb1565b80156114685780601f1061143d57610100808354040283529160200191611468565b820191906000526020600020905b81548152906001019060200180831161144b57829003601f168201915b50505060038401546004850154600586015460068701546007880154600889015460098a0154600a8b0154600c909b0154999a96999598509396509194909391929161ffff9091169060ff168c565b6001546001600160a01b031633146114e15760405162461bcd60e51b815260040161086e90612f01565b600083815260046020526040812090600c82015462010000900460ff16600481111561150f5761150f61272d565b146115505760405162461bcd60e51b81526020600482015260116024820152702837b9b4ba34b7b7103737ba1037b832b760791b604482015260640161086e565b60008260048111156115645761156461272d565b036115a85760405162461bcd60e51b8152602060048201526014602482015273496e76616c69642066696e616c2073746174757360601b604482015260640161086e565b60078101839055426008820155600c8101805483919062ff00001916620100008360048111156115da576115da61272d565b021790555060008160030154846115f19190612f2f565b9050670de0b6b3a764000082600501548261160c9190612f56565b6116169190612f9c565b60098301819055611627908461241a565b847feb0a8e60f679e64b903dbb4f833b3ac9a9130bcab1e0dd4452a45437306910548584600901548660405161165f93929190612fca565b60405180910390a25050505050565b6060600060015b60055481116116d05760008181526004602081905260408220600c015462010000900460ff16908111156116ab576116ab61272d565b036116be57816116ba81612e98565b9250505b806116c881612e98565b915050611675565b5060008167ffffffffffffffff8111156116ec576116ec612896565b60405190808252806020026020018201604052801561172557816020015b6117126125b6565b81526020019060019003908161170a5790505b509050600060015b600554811161083b5760008181526004602081905260408220600c015462010000900460ff16908111156117635761176361272d565b036119025760008181526004602090815260409182902082516101c0810184528154815260018201546001600160a01b03169281019290925260028101805492939192918401916117b390612eb1565b80601f01602080910402602001604051908101604052809291908181526020018280546117df90612eb1565b801561182c5780601f106118015761010080835404028352916020019161182c565b820191906000526020600020905b81548152906001019060200180831161180f57829003601f168201915b50505091835250506003820154602082015260048083015460408301526005830154606083015260068301546080830152600783015460a0830152600883015460c0830152600983015460e0830152600a830154610100830152600b830154610120830152600c83015461ffff81166101408401526101609092019162010000900460ff16908111156118c1576118c161272d565b60048111156118d2576118d261272d565b815250508383815181106118e8576118e8612eeb565b602002602001018190525081806118fe90612e98565b9250505b8061190c81612e98565b91505061172d565b61191c6124e6565b60008281526002602081815260409283902083516101a0810185528154815260018201546001600160a01b0316928101929092529182018054919384019161196390612eb1565b80601f016020809104026020016040519081016040528092919081815260200182805461198f90612eb1565b80156119dc5780601f106119b1576101008083540402835291602001916119dc565b820191906000526020600020905b8154815290600101906020018083116119bf57829003601f168201915b5050505050815260200160038201548152602001600482015481526020016005820154815260200160068201548152602001600782015481526020016008820154815260200160098201548152602001600a820160009054906101000a900461ffff1661ffff1661ffff168152602001600b8201805480602002602001604051908101604052809291908181526020018280548015611a9a57602002820191906000526020600020905b815481526020019060010190808311611a86575b5050509183525050600c82015460209091019060ff1660048111156111b6576111b661272d565b611ac961263d565b60188383604051611adb92919061310f565b90815260408051918290036020908101832061012084018352805484526001810154918401919091526002810154918301919091526003810154606083015260048101546080830152600581015461ffff1660a0830152600681015460c0830152600781015460e08301526008015461010082015290505b92915050565b611b6161239d565b6001600160a01b038116611b8b57604051631e4fbdf760e01b81526000600482015260240161086e565b611b94816123ca565b50565b606060006003548311611baa5782611bae565b6003545b905060008167ffffffffffffffff811115611bcb57611bcb612896565b604051908082528060200260200182016040528015611c0457816020015b611bf16124e6565b815260200190600190039081611be95790505b506003549091506000905b60018110158015611c1f57508582105b15611e64576000818152600260205260408120600c015460ff166004811115611c4a57611c4a61272d565b14158015611c675750600081815260026020526040812060090154135b15611e525760008181526002602081815260409283902083516101a0810185528154815260018201546001600160a01b03169281019290925291820180549193840191611cb390612eb1565b80601f0160208091040260200160405190810160405280929190818152602001828054611cdf90612eb1565b8015611d2c5780601f10611d0157610100808354040283529160200191611d2c565b820191906000526020600020905b815481529060010190602001808311611d0f57829003601f168201915b5050505050815260200160038201548152602001600482015481526020016005820154815260200160068201548152602001600782015481526020016008820154815260200160098201548152602001600a820160009054906101000a900461ffff1661ffff1661ffff168152602001600b8201805480602002602001604051908101604052809291908181526020018280548015611dea57602002820191906000526020600020905b815481526020019060010190808311611dd6575b5050509183525050600c82015460209091019060ff166004811115611e1157611e1161272d565b6004811115611e2257611e2261272d565b81525050838381518110611e3857611e38612eeb565b60200260200101819052508180611e4e90612e98565b9250505b80611e5c816131a8565b915050611c0f565b5090949350505050565b6060600060015b6003548111611ee6578484604051611e8e92919061310f565b604051809103902060026000838152602001908152602001600020600201604051611eb991906131bf565b604051809103902003611ed45781611ed081612e98565b9250505b80611ede81612e98565b915050611e75565b5060008167ffffffffffffffff811115611f0257611f02612896565b604051908082528060200260200182016040528015611f3b57816020015b611f286124e6565b815260200190600190039081611f205790505b509050600060015b600354811161218c578686604051611f5c92919061310f565b604051809103902060026000838152602001908152602001600020600201604051611f8791906131bf565b60405180910390200361217a5760008181526002602081815260409283902083516101a0810185528154815260018201546001600160a01b03169281019290925291820180549193840191611fdb90612eb1565b80601f016020809104026020016040519081016040528092919081815260200182805461200790612eb1565b80156120545780601f1061202957610100808354040283529160200191612054565b820191906000526020600020905b81548152906001019060200180831161203757829003601f168201915b5050505050815260200160038201548152602001600482015481526020016005820154815260200160068201548152602001600782015481526020016008820154815260200160098201548152602001600a820160009054906101000a900461ffff1661ffff1661ffff168152602001600b820180548060200260200160405190810160405280929190818152602001828054801561211257602002820191906000526020600020905b8154815260200190600101908083116120fe575b5050509183525050600c82015460209091019060ff1660048111156121395761213961272d565b600481111561214a5761214a61272d565b8152505083838151811061216057612160612eeb565b6020026020010181905250818061217690612e98565b9250505b8061218481612e98565b915050611f43565b509095945050505050565b61219f61263d565b50604080516101208101825260065481526007546020820152600854918101919091526009546060820152600a546080820152600b5461ffff1660a0820152600c5460c0820152600d5460e0820152600e5461010082015290565b6007805490600061220a83612e98565b919050555081600660030160008282546122249190613235565b9091555050600082131561225c576008805490600061224283612e98565b9091555050600d5482131561225757600d8290555b612275565b600082121561227557600e5482121561227557600e8290555b600754156122c35760075460085461228f9061271061325d565b6122999190613274565b600b805461ffff191661ffff929092169190911790556007546009546122bf9190612f9c565b600c555b5050565b60006018846040516122d99190613288565b90815260405190819003602001902060018101805491925060006122fc83612e98565b9190505550828160030160008282546123159190613235565b9091555050600083131561233b5760028101805490600061233583612e98565b91905055505b600181015415612397576001810154600282015461235b9061271061325d565b6123659190613274565b60058201805461ffff191661ffff92909216919091179055600181015460038201546123919190612f9c565b60068201555b50505050565b6000546001600160a01b031633146111e25760405163118cdaa760e01b815233600482015260240161086e565b600080546001600160a01b038381166001600160a01b0319831681178455604051919092169283917f8be0079c531659141344cd1fd0a4f28419497f9722a3daafe3b4186f6b6457e09190a35050565b6010805490600061242a83612e98565b919050555081600f60030160008282546124449190613235565b9091555050600082131561247c576011805490600061246283612e98565b90915550506016548213156124775760168290555b612495565b6000821215612495576017548212156124955760178290555b601054156122c3576010546011546124af9061271061325d565b6124b99190613274565b6014805461ffff191661ffff929092169190911790556010546012546124df9190612f9c565b6015555050565b604051806101a001604052806000815260200160006001600160a01b031681526020016060815260200160008152602001600081526020016000815260200160008152602001600081526020016000815260200160008152602001600061ffff16815260200160608152602001600060048111156125665761256661272d565b905290565b8280548282559060005260206000209081019282156125a6579160200282015b828111156125a657825182559160200191906001019061258b565b506125b292915061268d565b5090565b604051806101c001604052806000815260200160006001600160a01b0316815260200160608152602001600081526020016000815260200160008152602001600081526020016000815260200160008152602001600081526020016000815260200160008152602001600061ffff168152602001600060048111156125665761256661272d565b6040518061012001604052806000815260200160008152602001600081526020016000815260200160008152602001600061ffff1681526020016000815260200160008152602001600081525090565b5b808211156125b2576000815560010161268e565b60005b838110156126bd5781810151838201526020016126a5565b50506000910152565b600081518084526126de8160208601602086016126a2565b601f01601f19169290920160200192915050565b600081518084526020808501945080840160005b8381101561272257815187529582019590820190600101612706565b509495945050505050565b634e487b7160e01b600052602160045260246000fd5b6005811061276157634e487b7160e01b600052602160045260246000fd5b9052565b60006101a082518452602083015161278860208601826001600160a01b03169052565b5060408301518160408601526127a0828601826126c6565b915050606083015160608501526080830151608085015260a083015160a085015260c083015160c085015260e083015160e0850152610100808401518186015250610120808401518186015250610140808401516128038287018261ffff169052565b5050610160808401518583038287015261281d83826126f2565b9250505061018080840151611e6482870182612743565b6000602080830181845280855180835260408601915060408160051b870101925083870160005b8281101561288957603f19888603018452612877858351612765565b9450928501929085019060010161285b565b5092979650505050505050565b634e487b7160e01b600052604160045260246000fd5b6000602082840312156128be57600080fd5b813567ffffffffffffffff808211156128d657600080fd5b818401915084601f8301126128ea57600080fd5b8135818111156128fc576128fc612896565b604051601f8201601f19908116603f0116810190838211818310171561292457612924612896565b8160405282815287602084870101111561293d57600080fd5b826020860160208301376000928101602001929092525095945050505050565b60006020828403121561296f57600080fd5b813560ff8116811461298057600080fd5b9392505050565b60008060006060848603121561299c57600080fd5b83359250602084013591506040840135600581106129b957600080fd5b809150509250925092565b80356001600160a01b03811681146129db57600080fd5b919050565b60008083601f8401126129f257600080fd5b50813567ffffffffffffffff811115612a0a57600080fd5b602083019150836020828501011115612a2257600080fd5b9250929050565b803561ffff811681146129db57600080fd5b600080600080600080600080600060e08a8c031215612a5957600080fd5b612a628a6129c4565b985060208a013567ffffffffffffffff80821115612a7f57600080fd5b612a8b8d838e016129e0565b909a50985060408c0135975060608c0135965060808c01359550889150612ab460a08d01612a29565b945060c08c0135915080821115612aca57600080fd5b818c0191508c601f830112612ade57600080fd5b813581811115612aed57600080fd5b8d60208260051b8501011115612b0257600080fd5b6020830194508093505050509295985092959850929598565b60008060008060008060008060006101008a8c031215612b3a57600080fd5b612b438a6129c4565b985060208a013567ffffffffffffffff811115612b5f57600080fd5b612b6b8c828d016129e0565b90995097505060408a0135955060608a0135945060808a0135935060a08a0135925060c08a01359150612ba060e08b01612a29565b90509295985092959850929598565b600060208284031215612bc157600080fd5b5035919050565b60006101c0825184526020830151612beb60208601826001600160a01b03169052565b506040830151816040860152612c03828601826126c6565b915050606083015160608501526080830151608085015260a083015160a085015260c083015160c085015260e083015160e085015261010080840151818601525061012080840151818601525061014080840151818601525061016080840151818601525061018080840151612c7e8287018261ffff169052565b50506101a080840151611e6482870182612743565b6020815260006129806020830184612bc8565b8e81526001600160a01b038e1660208201526101c060408201819052600090612cd19083018f6126c6565b90508c60608301528b60808301528a60a08301528960c08301528860e08301528761010083015286610120830152856101408301528461016083015261ffff8416610180830152612d266101a0830184612743565b9f9e505050505050505050505050505050565b600060208284031215612d4b57600080fd5b612980826129c4565b8c81526001600160a01b038c16602082015261018060408201819052600090612d7f8382018e6126c6565b9150508a60608301528960808301528860a08301528760c08301528660e0830152856101008301528461012083015261ffff8416610140830152612dc7610160830184612743565b9d9c50505050505050505050505050565b6000602080830181845280855180835260408601915060408160051b870101925083870160005b8281101561288957603f19888603018452612e1b858351612bc8565b94509285019290850190600101612dff565b6020815260006129806020830184612765565b60008060208385031215612e5357600080fd5b823567ffffffffffffffff811115612e6a57600080fd5b612e76858286016129e0565b90969095509350505050565b634e487b7160e01b600052601160045260246000fd5b600060018201612eaa57612eaa612e82565b5060010190565b600181811c90821680612ec557607f821691505b602082108103612ee557634e487b7160e01b600052602260045260246000fd5b50919050565b634e487b7160e01b600052603260045260246000fd5b602080825260149082015273139bdd08185d5d1a1bdc9a5e9959081d985d5b1d60621b604082015260600190565b8181036000831280158383131683831282161715612f4f57612f4f612e82565b5092915050565b80820260008212600160ff1b84141615612f7257612f72612e82565b8181058314821517611b5357611b53612e82565b634e487b7160e01b600052601260045260246000fd5b600082612fab57612fab612f86565b600160ff1b821460001984141615612fc557612fc5612e82565b500590565b8381526020810183905260608101612fe56040830184612743565b949350505050565b601f82111561303757600081815260208120601f850160051c810160208610156130145750805b601f850160051c820191505b8181101561303357828155600101613020565b5050505b505050565b815167ffffffffffffffff81111561305657613056612896565b61306a816130648454612eb1565b84612fed565b602080601f83116001811461309f57600084156130875750858301515b600019600386901b1c1916600185901b178555613033565b600085815260208120601f198616915b828110156130ce578886015182559484019460019091019084016130af565b50858210156130ec5787850151600019600388901b60f8161c191681555b5050505050600190811b01905550565b80820180821115611b5357611b53612e82565b8183823760009101908152919050565b81835281816020850137506000828201602090810191909152601f909101601f19169091010190565b60608152600061315c60608301868861311f565b905083602083015261ffff8316604083015295945050505050565b60808152600061318b60808301878961311f565b602083019590955250604081019290925260609091015292915050565b6000816131b7576131b7612e82565b506000190190565b60008083546131cd81612eb1565b600182811680156131e557600181146131fa57613229565b60ff1984168752821515830287019450613229565b8760005260208060002060005b858110156132205781548a820152908401908201613207565b50505082870194505b50929695505050505050565b808201828112600083128015821682158216171561325557613255612e82565b505092915050565b8082028115828204841417611b5357611b53612e82565b60008261328357613283612f86565b500490565b6000825161329a8184602087016126a2565b919091019291505056fea264697066735822122022d6e6e5bc08d458d60d59f4674c9c561b158413059ae9575c835c9331aa22a664736f6c63430008140033",
  "devdoc": {
    "details": "Provides transparent, auditable performance metrics",
    "errors": {
      "OwnableInvalidOwner(address)": [
        {
          "details": "The owner is not a valid owner account. (eg. `address(0)`)"
        }
      ],
      "OwnableUnauthorizedAccount(address)": [
        {
          "details": "The caller account is not authorized to perform an operation."
        }
      ]
    },
    "kind": "dev",
    "methods": {
      "owner()": {
        "details": "Returns the address of the current owner."
      },
      "renounceOwnership()": {
        "details": "Leaves the contract without owner. It will not be possible to call `onlyOwner` functions. Can only be called by the current owner. NOTE: Renouncing ownership will leave the contract without an owner, thereby disabling any functionality that is only available to the owner."
      },
      "transferOwnership(address)": {
        "details": "Transfers ownership of the contract to a new account (`newOwner`). Can only be called by the current owner."
      }
    },
    "title": "PositionRegistry",
    "version": 1
  },
  "userdoc": {
    "kind": "user",
    "methods": {
      "closeDipBuy(uint256,uint256,uint8)": {
        "notice": "Close a dip buy position"
      },
      "closePosition(uint256,uint256,uint8)": {
        "notice": "Close a position and calculate P&L"
      },
      "recordDipBuy(address,string,uint256,uint256,uint256,uint256,uint256,uint16)": {
        "notice": "Record a new dip buy position"
      },
      "recordPosition(address,string,uint256,uint256,uint256,uint16,bytes32[])": {
        "notice": "Record a new short position"
      }
    },
    "notice": "On-chain ledger of all shorts with P&L tracking",
    "version": 1
  },
  "storageLayout": {
    "storage": [
      {
        "astId": 8,
        "contract": "contracts/PositionRegistry.sol:PositionRegistry",
        "label": "_owner",
        "offset": 0,
        "slot": "0",
        "type": "t_address"
      },
      {
        "astId": 269,
        "contract": "contracts/PositionRegistry.sol:PositionRegistry",
        "label": "nexusVault",
        "offset": 0,
        "slot": "1",
        "type": "t_address"
      },
      {
        "astId": 274,
        "contract": "contracts/PositionRegistry.sol:PositionRegistry",
        "label": "positions",
        "offset": 0,
        "slot": "2",
        "type": "t_mapping(t_uint256,t_struct(Position)218_storage)"
      },
      {
        "astId": 276,
        "contract": "contracts/PositionRegistry.sol:PositionRegistry",
        "label": "positionIdCounter",
        "offset": 0,
        "slot": "3",
        "type": "t_uint256"
      },
      {
        "astId": 281,
        "contract": "contracts/PositionRegistry.sol:PositionRegistry",
        "label": "dipBuyPositions",
        "offset": 0,
        "slot": "4",
        "type": "t_mapping(t_uint256,t_struct(DipBuyPosition)248_storage)"
      },
      {
        "astId": 283,
        "contract": "contracts/PositionRegistry.sol:PositionRegistry",
        "label": "dipBuyIdCounter",
        "offset": 0,
        "slot": "5",
        "type": "t_uint256"
      },
      {
        "astId": 286,
        "contract": "contracts/PositionRegistry.sol:PositionRegistry",
        "label": "metrics",
        "offset": 0,
        "slot": "6",
        "type": "t_struct(PerformanceMetrics)267_storage"
      },
      {
        "astId": 289,
        "contract": "contracts/PositionRegistry.sol:PositionRegistry",
        "label": "dipBuyMetrics",
        "offset": 0,
        "slot": "15",
        "type": "t_struct(PerformanceMetrics)267_storage"
      },
      {
        "astId": 294,
        "contract": "contracts/PositionRegistry.sol:PositionRegistry",
        "label": "chainMetrics",
        "offset": 0,
        "slot": "24",
        "type": "t_mapping(t_string_memory_ptr,t_struct(PerformanceMetrics)267_storage)"
      },
      {
        "astId": 299,
        "contract": "contracts/PositionRegistry.sol:PositionRegistry",
        "label": "signalTypeMetrics",
        "offset": 0,
        "slot": "25",
        "type": "t_mapping(t_uint8,t_struct(PerformanceMetrics)267_storage)"
      }
    ],
    "types": {
      "t_address": {
        "encoding": "inplace",
        "label": "address",
        "numberOfBytes": "20"
      },
      "t_array(t_bytes32)dyn_storage": {
        "base": "t_bytes32",
        "encoding": "dynamic_array",
        "label": "bytes32[]",
        "numberOfBytes": "32"
      },
      "t_bytes32": {
        "encoding": "inplace",
        "label": "bytes32",
        "numberOfBytes": "32"
      },
      "t_enum(PositionStatus)189": {
        "encoding": "inplace",
        "label": "enum PositionRegistry.PositionStatus",
        "numberOfBytes": "1"
      },
      "t_int256": {
        "encoding": "inplace",
        "label": "int256",
        "numberOfBytes": "32"
      },
      "t_mapping(t_string_memory_ptr,t_struct(PerformanceMetrics)267_storage)": {
        "encoding": "mapping",
        "key": "t_string_memory_ptr",
        "label": "mapping(string => struct PositionRegistry.PerformanceMetrics)",
        "numberOfBytes": "32",
        "value": "t_struct(PerformanceMetrics)267_storage"
      },
      "t_mapping(t_uint256,t_struct(DipBuyPosition)248_storage)": {
        "encoding": "mapping",
        "key": "t_uint256",
        "label": "mapping(uint256 => struct PositionRegistry.DipBuyPosition)",
        "numberOfBytes": "32",
        "value": "t_struct(DipBuyPosition)248_storage"
      },
      "t_mapping(t_uint256,t_struct(Position)218_storage)": {
        "encoding": "mapping",
        "key": "t_uint256",
        "label": "mapping(uint256 => struct PositionRegistry.Position)",
        "numberOfBytes": "32",
        "value": "t_struct(Position)218_storage"
      },
      "t_mapping(t_uint8,t_struct(PerformanceMetrics)267_storage)": {
        "encoding": "mapping",
        "key": "t_uint8",
        "label": "mapping(uint8 => struct PositionRegistry.PerformanceMetrics)",
        "numberOfBytes": "32",
        "value": "t_struct(PerformanceMetrics)267_storage"
      },
      "t_string_memory_ptr": {
        "encoding": "bytes",
        "label": "string",
        "numberOfBytes": "32"
      },
      "t_string_storage": {
        "encoding": "bytes",
        "label": "string",
        "numberOfBytes": "32"
      },
      "t_struct(DipBuyPosition)248_storage": {
        "encoding": "inplace",
        "label": "struct PositionRegistry.DipBuyPosition",
        "members": [
          {
            "astId": 220,
            "contract": "contracts/PositionRegistry.sol:PositionRegistry",
            "label": "id",
            "offset": 0,
            "slot": "0",
            "type": "t_uint256"
          },
          {
            "astId": 222,
            "contract": "contracts/PositionRegistry.sol:PositionRegistry",
            "label": "tokenAddress",
            "offset": 0,
            "slot": "1",
            "type": "t_address"
          },
          {
            "astId": 224,
            "contract": "contracts/PositionRegistry.sol:PositionRegistry",
            "label": "chain",
            "offset": 0,
            "slot": "2",
            "type": "t_string_storage"
          },
          {
            "astId": 226,
            "contract": "contracts/PositionRegistry.sol:PositionRegistry",
            "label": "entryPrice",
            "offset": 0,
            "slot": "3",
            "type": "t_uint256"
          },
          {
            "astId": 228,
            "contract": "contracts/PositionRegistry.sol:PositionRegistry",
            "label": "entryTimestamp",
            "offset": 0,
            "slot": "4",
            "type": "t_uint256"
          },
          {
            "astId": 230,
            "contract": "contracts/PositionRegistry.sol:PositionRegistry",
            "label": "sizeTokens",
            "offset": 0,
            "slot": "5",
            "type": "t_uint256"
          },
          {
            "astId": 232,
            "contract": "contracts/PositionRegistry.sol:PositionRegistry",
            "label": "sizeUSDC",
            "offset": 0,
            "slot": "6",
            "type": "t_uint256"
          },
          {
            "astId": 234,
            "contract": "contracts/PositionRegistry.sol:PositionRegistry",
            "label": "exitPrice",
            "offset": 0,
            "slot": "7",
            "type": "t_uint256"
          },
          {
            "astId": 236,
            "contract": "contracts/PositionRegistry.sol:PositionRegistry",
            "label": "exitTimestamp",
            "offset": 0,
            "slot": "8",
            "type": "t_uint256"
          },
          {
            "astId": 238,
            "contract": "contracts/PositionRegistry.sol:PositionRegistry",
            "label": "pnlUSDC",
            "offset": 0,
            "slot": "9",
            "type": "t_int256"
          },
          {
            "astId": 240,
            "contract": "contracts/PositionRegistry.sol:PositionRegistry",
            "label": "takeProfitPrice",
            "offset": 0,
            "slot": "10",
            "type": "t_uint256"
          },
          {
            "astId": 242,
            "contract": "contracts/PositionRegistry.sol:PositionRegistry",
            "label": "stopLossPrice",
            "offset": 0,
            "slot": "11",
            "type": "t_uint256"
          },
          {
            "astId": 244,
            "contract": "contracts/PositionRegistry.sol:PositionRegistry",
            "label": "confidenceScore",
            "offset": 0,
            "slot": "12",
            "type": "t_uint16"
          },
          {
            "astId": 247,
            "contract": "contracts/PositionRegistry.sol:PositionRegistry",
            "label": "status",
            "offset": 2,
            "slot": "12",
            "type": "t_enum(PositionStatus)189"
          }
        ],
        "numberOfBytes": "416"
      },
      "t_struct(PerformanceMetrics)267_storage": {
        "encoding": "inplace",
        "label": "struct PositionRegistry.PerformanceMetrics",
        "members": [
          {
            "astId": 250,
            "contract": "contracts/PositionRegistry.sol:PositionRegistry",
            "label": "totalPositions",
            "offset": 0,
            "slot": "0",
            "type": "t_uint256"
          },
          {
            "astId": 252,
            "contract": "contracts/PositionRegistry.sol:PositionRegistry",
            "label": "closedPositions",
            "offset": 0,
            "slot": "1",
            "type": "t_uint256"
          },
          {
            "astId": 254,
            "contract": "contracts/PositionRegistry.sol:PositionRegistry",
            "label": "profitablePositions",
            "offset": 0,
            "slot": "2",
            "type": "t_uint256"
          },
          {
            "astId": 256,
            "contract": "contracts/PositionRegistry.sol:PositionRegistry",
            "label": "totalPnLUSDC",
            "offset": 0,
            "slot": "3",
            "type": "t_int256"
          },
          {
            "astId": 258,
            "contract": "contracts/PositionRegistry.sol:PositionRegistry",
            "label": "totalVolumeUSDC",
            "offset": 0,
            "slot": "4",
            "type": "t_uint256"
          },
          {
            "astId": 260,
            "contract": "contracts/PositionRegistry.sol:PositionRegistry",
            "label": "winRatePercent",
            "offset": 0,
            "slot": "5",
            "type": "t_uint16"
          },
          {
            "astId": 262,
            "contract": "contracts/PositionRegistry.sol:PositionRegistry",
            "label": "averagePnL",
            "offset": 0,
            "slot": "6",
            "type": "t_int256"
          },
          {
            "astId": 264,
            "contract": "contracts/PositionRegistry.sol:PositionRegistry",
            "label": "largestWin",
            "offset": 0,
            "slot": "7",
            "type": "t_int256"
          },
          {
            "astId": 266,
            "contract": "contracts/PositionRegistry.sol:PositionRegistry",
            "label": "largestLoss",
            "offset": 0,
            "slot": "8",
            "type": "t_int256"
          }
        ],
        "numberOfBytes": "288"
      },
      "t_struct(Position)218_storage": {
        "encoding": "inplace",
        "label": "struct PositionRegistry.Position",
        "members": [
          {
            "astId": 191,
            "contract": "contracts/PositionRegistry.sol:PositionRegistry",
            "label": "id",
            "offset": 0,
            "slot": "0",
            "type": "t_uint256"
          },
          {
            "astId": 193,
            "contract": "contracts/PositionRegistry.sol:PositionRegistry",
            "label": "tokenAddress",
            "offset": 0,
            "slot": "1",
            "type": "t_address"
          },
          {
            "astId": 195,
            "contract": "contracts/PositionRegistry.sol:PositionRegistry",
            "label": "chain",
            "offset": 0,
            "slot": "2",
            "type": "t_string_storage"
          },
          {
            "astId": 197,
            "contract": "contracts/PositionRegistry.sol:PositionRegistry",
            "label": "entryPrice",
            "offset": 0,
            "slot": "3",
            "type": "t_uint256"
          },
          {
            "astId": 199,
            "contract": "contracts/PositionRegistry.sol:PositionRegistry",
            "label": "entryTimestamp",
            "offset": 0,
            "slot": "4",
            "type": "t_uint256"
          },
          {
            "astId": 201,
            "contract": "contracts/PositionRegistry.sol:PositionRegistry",
            "label": "sizeTokens",
            "offset": 0,
            "slot": "5",
            "type": "t_uint256"
          },
          {
            "astId": 203,
            "contract": "contracts/PositionRegistry.sol:PositionRegistry",
            "label": "sizeUSDC",
            "offset": 0,
            "slot": "6",
            "type": "t_uint256"
          },
          {
            "astId": 205,
            "contract": "contracts/PositionRegistry.sol:PositionRegistry",
            "label": "exitPrice",
            "offset": 0,
            "slot": "7",
            "type": "t_uint256"
          },
          {
            "astId": 207,
            "contract": "contracts/PositionRegistry.sol:PositionRegistry",
            "label": "exitTimestamp",
            "offset": 0,
            "slot": "8",
            "type": "t_uint256"
          },
          {
            "astId": 209,
            "contract": "contracts/PositionRegistry.sol:PositionRegistry",
            "label": "pnlUSDC",
            "offset": 0,
            "slot": "9",
            "type": "t_int256"
          },
          {
            "astId": 211,
            "contract": "contracts/PositionRegistry.sol:PositionRegistry",
            "label": "confidenceScore",
            "offset": 0,
            "slot": "10",
            "type": "t_uint16"
          },
          {
            "astId": 214,
            "contract": "contracts/PositionRegistry.sol:PositionRegistry",
            "label": "triggeringSignals",
            "offset": 0,
            "slot": "11",
            "type": "t_array(t_bytes32)dyn_storage"
          },
          {
            "astId": 217,
            "contract": "contracts/PositionRegistry.sol:PositionRegistry",
            "label": "status",
            "offset": 0,
            "slot": "12",
            "type": "t_enum(PositionStatus)189"
          }
        ],
        "numberOfBytes": "416"
      },
      "t_uint16": {
        "encoding": "inplace",
        "label": "uint16",
        "numberOfBytes": "2"
      },
      "t_uint256": {
        "encoding": "inplace",
        "label": "uint256",
        "numberOfBytes": "32"
      },
      "t_uint8": {
        "encoding": "inplace",
        "label": "uint8",
        "numberOfBytes": "1"
      }
    }
  }
}